:100000000C942A000C943F000C943F000C943F0089
:100010000C943F000C943F000C943F000C943F0064
:100020000C943F000C943F000C943F000C943F0054
:100030000C943F000C943F000C943F000C943F0044
:100040000C943F000C943F000C943F000C943F0034
:100050000C943F0011241FBECFE5D8E0DEBFCDBF1A
:1000600010E0A0E6B0E0E4E1F6E002C005900D92F9
:10007000AE36B107D9F70E9441000C9408030C94E6
:1000800000000E94D9000E94970180E80E9492001F
:1000900080E690E00E94660180EC0E9492000E943F
:1000A0009A01BC0180E090E00E9479012FEF89E67F
:1000B00098E1215080409040E1F700C000000E948C
:1000C0006201E3CF87B1806487B987B18F7787B941
:1000D00087B18F7D87B987B18E7F87B987B18D7FD3
:1000E00087B987B18B7F87B987B1877F87B987B198
:1000F0008F7E87B986B1806286B986B1816086B904
:1001000086B1826086B986B1846086B986B180681E
:1001100086B9089586B1806486B9349BFECF84B1D8
:1001200095B10895CF93C82F40E061E081E00E942F
:100130001A0240E062E081E00E941A0240E063E0BF
:1001400081E00E941A028BB39C2F907F8F70892BC5
:100150008BBB41E063E081E00E941A028FE99FE0DF
:100160000197F1F700C0000040E063E081E00E94E9
:100170001A0220E1C29FC00111249BB39F70892BFA
:100180008BBB41E063E081E00E941A028FE99FE0AF
:100190000197F1F700C0000040E063E081E00E94B9
:1001A0001A028FE19EE40197F1F700C00000CF91A1
:1001B000089541E061E081E00E94A90141E062E030
:1001C00081E00E94A90141E063E081E00E94A90171
:1001D00041E064E080E00E94A90141E065E080E048
:1001E0000E94A90141E066E080E00E94A90141E08F
:1001F00067E080E00E94A9012FEF81EE94E021509A
:1002000080409040E1F700C0000082E00E94920030
:1002100083E30E94920082E30E94920088E20E949F
:1002200092008CE00E94920081E00E94920086E0A1
:100230000E9492000895CF93C82F41E061E081E0D1
:100240000E941A0240E062E081E00E941A0240E04F
:1002500063E081E00E941A028BB39C2F907F8F7025
:10026000892B8BBB41E063E081E00E941A028FE999
:100270009FE00197F1F700C0000040E063E081E0FB
:100280000E941A0220E1C29FC00111249BB39F70FB
:10029000892B8BBB41E063E081E00E941A028FE969
:1002A0009FE00197F1F700C0000040E063E081E0CB
:1002B0000E941A028FE19EE40197F1F700C000004E
:1002C000CF91089581E00E9492000895CF93DF932B
:1002D000EC0109C08FE99FE00197F1F700C0000031
:1002E00089910E941B0188818111F4CFDF91CF9108
:1002F0000895CF93DF93CDB7DEB72A970FB6F89462
:10030000DEBF0FBECDBF2AE030E0AE014F5F5F4FD2
:100310000E94BC02CE0101960E9466012A960FB689
:10032000F894DEBF0FBECDBFDF91CF9108950E943C
:10033000620008950E948A009C01A4EFB1E00E942F
:10034000AD022FEF33E040E050E00E948B02C90184
:100350000895442319F04130C9F10895813091F096
:1003600028F08230D9F0833029F108952AB381E052
:1003700090E002C0880F991F6A95E2F7809582236A
:100380008ABB089527B381E090E002C0880F991FCF
:100390006A95E2F78095822387BB089524B381E0B4
:1003A00090E002C0880F991F6A95E2F7809582233A
:1003B00084BB089521B381E090E002C0880F991FAB
:1003C0006A95E2F78095822381BB0895813089F098
:1003D00028F08230C9F0833011F108952AB381E00A
:1003E00090E002C0880F991F6A95E2F7822B8ABBC2
:1003F000089527B381E090E002C0880F991F6A95A5
:10040000E2F7822B87BB089524B381E090E002C01D
:10041000880F991F6A95E2F7822B84BB089521B358
:1004200081E090E002C0880F991F6A95E2F7822B65
:1004300081BB0895442319F04130C9F108958130FA
:1004400091F028F08230D9F0833029F108952BB350
:1004500081E090E002C0880F991F6A95E2F78095CD
:1004600082238BBB089528B381E090E002C0880FFF
:10047000991F6A95E2F78095822388BB089525B37A
:1004800081E090E002C0880F991F6A95E2F780959D
:10049000822385BB089522B381E090E002C0880FDB
:1004A000991F6A95E2F78095822382BB0895813077
:1004B00089F028F08230C9F0833011F108952BB310
:1004C00081E090E002C0880F991F6A95E2F7822BC5
:1004D0008BBB089528B381E090E002C0880F991F7C
:1004E0006A95E2F7822B88BB089525B381E090E0FE
:1004F00002C0880F991F6A95E2F7822B85BB089589
:1005000022B381E090E002C0880F991F6A95E2F75C
:10051000822B82BB0895A1E21A2EAA1BBB1BFD01F0
:100520000DC0AA1FBB1FEE1FFF1FA217B307E407D2
:10053000F50720F0A21BB30BE40BF50B661F771F2A
:10054000881F991F1A9469F760957095809590950A
:100550009B01AC01BD01CF010895A29FB001B39FE3
:10056000C001A39F700D811D1124911DB29F700DBC
:10057000811D1124911D08952532310520F422306A
:1005800010F00C94C702FA011082CA010895BB272B
:100590002A3051F4992342F4BDE2909580957095EC
:1005A00061957F4F8F4F9F4F0C94D702BB27FA0165
:1005B000A62F6217710581059105330B30FB66F09C
:1005C000AA27660F771F881F991FAA1FA21710F06E
:1005D000A21B63953850A9F7A05DAA3308F0A95D66
:1005E000A19336F7B111B1931082CA010C94F802AD
:1005F000DC01FC01672F71917723E1F7329704C08A
:100600007C916D9370836291AE17BF07C8F3089514
:04061000F894FFCF8C
:0E06140054656D7065726174757265203D00ED
:00000001FF
